:020000040800F2
:1000000070060020350200083D0200083F0200088B
:1000100041020008430200084502000800000000F9
:10002000000000000000000000000000470200087F
:1000300049020008000000004B0200084D020008C1
:100040004F0200084F0200084F0200084F0200084C
:100050004F0200084F0200084F0200084F0200083C
:100060004F0200084F0200084F0200084F0200082C
:100070004F0200084F0200084F0200084F0200081C
:100080004F0200084F0200084F0200080000000065
:100090000000000000000000000000004F02000807
:1000A0004F0200084F0200084F0200084F020008EC
:1000B000ED0300084F0200084F0200084F0200083D
:1000C0004F0200084F0200084F0200084F020008CC
:1000D0004F0200084F0200084F0200080000000015
:1000E0004F0200084F0200084F0200080000000005
:1000F0000000000000000000000000004F020008A7
:10010000000000004F0200084F0200084F020008E4
:1001100000000000000000000000000000000000DF
:100120004F0200084F0200084F0200084F0200086B
:100130004F02000800000000000000000000000066
:100140000000000000000000000000004F02000856
:100150004F0200084F0200084F0200084F0200083B
:100160004F0200084F0200080000000000000000DD
:10017000000000000000000000000000000000007F
:10018000000000004F020008000000000000000016
:100190004F02000800F002F800F03CF80AA090E8D6
:1001A000000C82448344AAF10107DA4501D100F032
:1001B00031F8AFF2090EBAE80F0013F0010F18BFC3
:1001C000FB1A43F001031847240400004404000014
:1001D000103A24BF78C878C1FAD8520724BF30C873
:1001E00030C144BF04680C60704700000023002445
:1001F00000250026103A28BF78C1FBD8520728BF37
:1002000030C148BF0B6070471FB500F0E9F91FBD52
:1002100010B510BD00F037F81146FFF7F5FF00F0FC
:100220005EF900F055F803B4FFF7F2FF03BC00F0ED
:1002300059F800000948804709480047FEE7FEE7F3
:10024000FEE7FEE7FEE7FEE7FEE7FEE7FEE7FEE786
:1002500004480549054A064B704700008903000819
:100260009501000870000020700600207002002038
:1002700070020020704770477047000000487047C8
:100280001000002070477546FFF7F8FFAE460500E6
:100290006946534620F00700854618B020B5FFF7A1
:1002A000D7FFBDE820404FF000064FF000074FF0A9
:1002B00000084FF0000B21F00701AC46ACE8C00984
:1002C000ACE8C009ACE8C009ACE8C0098D4670478D
:1002D00010B50446AFF300802046BDE81040FFF79C
:1002E000A2BF000001491820ABBEFEE726000200B5
:1002F00070B5002100230F22C4781CB3174C24686A
:1003000004F4E064C4F5E064C4F30721C1F104041B
:10031000E3B20A4144789C40E1B28478144021431E
:100320000C07210E0E4C05786155047804F01F056A
:100330000124AC4005786D11AD0005F1E025C5F84C
:10034000004109E0047804F01F050124AC40054D8C
:100350000678761145F8264070BD00000CED00E0EF
:1003600000E400E080E100E029B1064A126802439F
:10037000044B1A6004E0034A12688243014B1A607E
:1003800070470000403802401448006840F4700094
:10039000124908601248006840F0010010490860E6
:1003A00000200F49083108600D4800680D490840D9
:1003B0000B4908600C48091D0860081F006820F4FC
:1003C0008020091F0860002005490C3108604FF0AB
:1003D00000600249803908607047000088ED00E045
:1003E00000380240FFFFF6FE1030002410B5012156
:1003F000880700F017F828B100F0ACF80121880751
:1004000000F001F810BDCA430282704721B1028892
:1004100042F00102028004E002884FF6FE731A40A7
:100420000280704730B50246002000230024158A60
:1004300005EA0103958905EA010413B10CB1012015
:1004400000E0002030BD1AB183890B43838102E0B4
:1004500083898B438381704700220288184B98421E
:100460000ED0184B98420BD0B0F1804F08D0164BED
:10047000984205D0154B984202D0154B984204D1B2
:100480004FF68F731A404B881A43124B984207D08D
:10049000114B984204D04FF6FF431A400B891A4380
:1004A00002804B68C3620B880385054B984202D0DB
:1004B000044B984201D18B7A0386012383827047D3
:1004C000000001400004014000040040000800401A
:1004D000000C0040001000400014004070474FF432
:1004E0007A7000F003F800BFFEE700007FB5044615
:1004F000164800681649B0FBF1F000FB04F5012135
:100500000846FFF731FF02950020ADF80400ADF872
:100510000C001020ADF8060001A98006FFF79CFF33
:100520001C208DF8000000208DF8010001208DF8BE
:1005300003006846FFF7DCFE012211469007FFF733
:1005400082FF01218807FFF761FF7FBD0C000020BB
:1005500040420F0010B50648006808B100BFFEE732
:100560000448006800F008F800200149086010BD48
:10057000040000200800002070B5044621460B4806
:1005800000F018F80A480460024612689068084AA9
:100590001268516888470548056800E02D6828689A
:1005A0000028FBD102480068286070BD08000020C8
:1005B0000400002010B50A460468944203D1046880
:1005C0002468046009E003680468216801E00B46C0
:1005D00009689142FBD10C681C600024146010BDB6
:1005E0004FF04070E1EE100A704700000C06000862
:1005F0000000002010000000D00100081C060008C8
:100600001000002060060000EC010008DD04000876
:0C06100000000000000000000024F400C6
:0400000508000235B8
:00000001FF
